{
  "contractName": "FightHunt",
  "abi": [
    {
      "constant": false,
      "inputs": [
        {
          "name": "price",
          "type": "uint256"
        }
      ],
      "name": "setImproveForce",
      "outputs": [],
      "payable": false,
      "stateMutability": "nonpayable",
      "type": "function"
    },
    {
      "constant": true,
      "inputs": [
        {
          "name": "",
          "type": "address"
        }
      ],
      "name": "GeneralOwnerCount",
      "outputs": [
        {
          "name": "",
          "type": "uint256"
        }
      ],
      "payable": false,
      "stateMutability": "view",
      "type": "function"
    },
    {
      "constant": true,
      "inputs": [
        {
          "name": "",
          "type": "uint256"
        }
      ],
      "name": "generals",
      "outputs": [
        {
          "name": "name",
          "type": "string"
        },
        {
          "name": "age",
          "type": "uint256"
        },
        {
          "name": "fighting_force",
          "type": "uint256"
        },
        {
          "name": "level",
          "type": "uint256"
        },
        {
          "name": "win_count",
          "type": "uint256"
        },
        {
          "name": "loss_count",
          "type": "uint256"
        },
        {
          "name": "XP",
          "type": "uint256"
        }
      ],
      "payable": false,
      "stateMutability": "view",
      "type": "function"
    },
    {
      "constant": true,
      "inputs": [],
      "name": "random",
      "outputs": [
        {
          "name": "",
          "type": "uint256"
        }
      ],
      "payable": false,
      "stateMutability": "view",
      "type": "function"
    },
    {
      "constant": false,
      "inputs": [
        {
          "name": "_name",
          "type": "string"
        },
        {
          "name": "_age",
          "type": "uint256"
        }
      ],
      "name": "createFreeGeneral",
      "outputs": [],
      "payable": false,
      "stateMutability": "nonpayable",
      "type": "function"
    },
    {
      "constant": true,
      "inputs": [],
      "name": "owner",
      "outputs": [
        {
          "name": "",
          "type": "address"
        }
      ],
      "payable": false,
      "stateMutability": "view",
      "type": "function"
    },
    {
      "constant": false,
      "inputs": [
        {
          "name": "_general_id",
          "type": "uint256"
        }
      ],
      "name": "improveForce",
      "outputs": [],
      "payable": true,
      "stateMutability": "payable",
      "type": "function"
    },
    {
      "constant": false,
      "inputs": [
        {
          "name": "_owner",
          "type": "address"
        }
      ],
      "name": "getGeneral",
      "outputs": [
        {
          "name": "",
          "type": "uint256[]"
        }
      ],
      "payable": false,
      "stateMutability": "nonpayable",
      "type": "function"
    },
    {
      "constant": false,
      "inputs": [],
      "name": "getEth",
      "outputs": [],
      "payable": false,
      "stateMutability": "nonpayable",
      "type": "function"
    },
    {
      "constant": false,
      "inputs": [
        {
          "name": "_name",
          "type": "string"
        },
        {
          "name": "_age",
          "type": "uint256"
        }
      ],
      "name": "createGeneral",
      "outputs": [],
      "payable": false,
      "stateMutability": "nonpayable",
      "type": "function"
    },
    {
      "constant": true,
      "inputs": [
        {
          "name": "",
          "type": "uint256"
        }
      ],
      "name": "GeneralOwner",
      "outputs": [
        {
          "name": "",
          "type": "address"
        }
      ],
      "payable": false,
      "stateMutability": "view",
      "type": "function"
    },
    {
      "constant": false,
      "inputs": [
        {
          "name": "newOwner",
          "type": "address"
        }
      ],
      "name": "transferOwnership",
      "outputs": [],
      "payable": false,
      "stateMutability": "nonpayable",
      "type": "function"
    },
    {
      "anonymous": false,
      "inputs": [
        {
          "indexed": false,
          "name": "GeneralId",
          "type": "uint256"
        },
        {
          "indexed": false,
          "name": "name",
          "type": "string"
        },
        {
          "indexed": false,
          "name": "age",
          "type": "uint256"
        },
        {
          "indexed": false,
          "name": "fighting_force",
          "type": "uint256"
        },
        {
          "indexed": false,
          "name": "level",
          "type": "uint256"
        },
        {
          "indexed": false,
          "name": "win_count",
          "type": "uint256"
        },
        {
          "indexed": false,
          "name": "loss_count",
          "type": "uint256"
        },
        {
          "indexed": false,
          "name": "XP",
          "type": "uint256"
        },
        {
          "indexed": false,
          "name": "create_time",
          "type": "uint256"
        }
      ],
      "name": "NewGeneral",
      "type": "event"
    },
    {
      "anonymous": false,
      "inputs": [
        {
          "indexed": true,
          "name": "previousOwner",
          "type": "address"
        },
        {
          "indexed": true,
          "name": "newOwner",
          "type": "address"
        }
      ],
      "name": "OwnershipTransferred",
      "type": "event"
    },
    {
      "constant": false,
      "inputs": [
        {
          "name": "to_add",
          "type": "address"
        },
        {
          "name": "from_id",
          "type": "uint256"
        },
        {
          "name": "to_id",
          "type": "uint256"
        }
      ],
      "name": "fight",
      "outputs": [],
      "payable": false,
      "stateMutability": "nonpayable",
      "type": "function"
    },
    {
      "constant": false,
      "inputs": [
        {
          "name": "from_id",
          "type": "uint256"
        },
        {
          "name": "to_id",
          "type": "uint256"
        }
      ],
      "name": "hunt",
      "outputs": [],
      "payable": false,
      "stateMutability": "nonpayable",
      "type": "function"
    }
  ],
  "bytecode": "0x606060405266038d7ea4c68000600455600a60014303406001900460ff1681151561002657fe5b0660ff16600555336000806101000a81548173ffffffffffffffffffffffffffffffffffffffff021916908373ffffffffffffffffffffffffffffffffffffffff1602179055506119948061007c6000396000f3006060604052600436106100d0576000357c0100000000000000000000000000000000000000000000000000000000900463ffffffff1680630f2ae689146100d557806310d58230146100f8578063165e0dc61461014557806324ceadb0146101715780635ec01e4d1461025457806371f7d7141461027d578063728ea473146102c85780638da5cb5b146102ff5780639c172dea14610354578063a9ffa95b1461036c578063cb05b93e146103fa578063cd73d4cd1461040f578063e2565d7c14610475578063f2fde38b146104d8575b600080fd5b34156100e057600080fd5b6100f66004808035906020019091905050610511565b005b341561010357600080fd5b61012f600480803573ffffffffffffffffffffffffffffffffffffffff16906020019091905050610576565b6040518082815260200191505060405180910390f35b341561015057600080fd5b61016f600480803590602001909190803590602001909190505061058e565b005b341561017c57600080fd5b6101926004808035906020019091905050610792565b604051808060200188815260200187815260200186815260200185815260200184815260200183815260200182810382528981815460018160011615610100020316600290048152602001915080546001816001161561010002031660029004801561023f5780601f106102145761010080835404028352916020019161023f565b820191906000526020600020905b81548152906001019060200180831161022257829003601f168201915b50509850505050505050505060405180910390f35b341561025f57600080fd5b6102676107e2565b6040518082815260200191505060405180910390f35b341561028857600080fd5b6102c6600480803573ffffffffffffffffffffffffffffffffffffffff169060200190919080359060200190919080359060200190919050506107e8565b005b34156102d357600080fd5b6102fd60048080359060200190820180359060200191909192908035906020019091905050610c31565b005b341561030a57600080fd5b610312610f9a565b604051808273ffffffffffffffffffffffffffffffffffffffff1673ffffffffffffffffffffffffffffffffffffffff16815260200191505060405180910390f35b61036a6004808035906020019091905050610fbf565b005b341561037757600080fd5b6103a3600480803573ffffffffffffffffffffffffffffffffffffffff16906020019091905050611031565b6040518080602001828103825283818151815260200191508051906020019060200280838360005b838110156103e65780820151818401526020810190506103cb565b505050509050019250505060405180910390f35b341561040557600080fd5b61040d61115f565b005b341561041a57600080fd5b610473600480803590602001908201803590602001908080601f01602080910402602001604051908101604052809392919081815260200183838082843782019150505050505091908035906020019091905050611234565b005b341561048057600080fd5b6104966004808035906020019091905050611556565b604051808273ffffffffffffffffffffffffffffffffffffffff1673ffffffffffffffffffffffffffffffffffffffff16815260200191505060405180910390f35b34156104e357600080fd5b61050f600480803573ffffffffffffffffffffffffffffffffffffffff16906020019091905050611589565b005b6000809054906101000a900473ffffffffffffffffffffffffffffffffffffffff1673ffffffffffffffffffffffffffffffffffffffff163373ffffffffffffffffffffffffffffffffffffffff1614151561056c57600080fd5b8060048190555050565b60036020528060005260406000206000915090505481565b3373ffffffffffffffffffffffffffffffffffffffff166002600084815260200190815260200160002060009054906101000a900473ffffffffffffffffffffffffffffffffffffffff1673ffffffffffffffffffffffffffffffffffffffff161415156105fb57600080fd5b603260055460018381548110151561060f57fe5b90600052602060002090600702016002015460018581548110151561063057fe5b906000526020600020906007020160020154030210151561072c5760018281548110151561065a57fe5b90600052602060002090600702016006016000815480929190600101919050555060018281548110151561068a57fe5b9060005260206000209060070201600401600081548092919060010191905055506106b4826116de565b6000809054906101000a900473ffffffffffffffffffffffffffffffffffffffff166002600083815260200190815260200160002060006101000a81548173ffffffffffffffffffffffffffffffffffffffff021916908373ffffffffffffffffffffffffffffffffffffffff16021790555061078e565b60018281548110151561073b57fe5b9060005260206000209060070201600301600081548092919060019003919050555060018281548110151561076c57fe5b9060005260206000209060070201600501600081548092919060010191905055505b5050565b6001818154811015156107a157fe5b906000526020600020906007020160009150905080600001908060010154908060020154908060030154908060040154908060050154908060060154905087565b60055481565b3373ffffffffffffffffffffffffffffffffffffffff166002600084815260200190815260200160002060009054906101000a900473ffffffffffffffffffffffffffffffffffffffff1673ffffffffffffffffffffffffffffffffffffffff1614151561085557600080fd5b8273ffffffffffffffffffffffffffffffffffffffff166002600083815260200190815260200160002060009054906101000a900473ffffffffffffffffffffffffffffffffffffffff1673ffffffffffffffffffffffffffffffffffffffff161415156108c257600080fd5b60286005546001838154811015156108d657fe5b9060005260206000209060070201600201546001858154811015156108f757fe5b9060005260206000209060070201600201540302101515610aa15760018281548110151561092157fe5b90600052602060002090600702016006016000815480929190600101919050555060018281548110151561095157fe5b90600052602060002090600702016004016000815480929190600101919050555061097b826116de565b60018181548110151561098a57fe5b906000526020600020906007020160050160008154809291906001019190505550826002600083815260200190815260200160002060006101000a81548173ffffffffffffffffffffffffffffffffffffffff021916908373ffffffffffffffffffffffffffffffffffffffff160217905550600360003373ffffffffffffffffffffffffffffffffffffffff1673ffffffffffffffffffffffffffffffffffffffff16815260200190815260200160002060008154809291906001019190505550600360008473ffffffffffffffffffffffffffffffffffffffff1673ffffffffffffffffffffffffffffffffffffffff1681526020019081526020016000206000815480929190600190039190505550610c2c565b600181815481101515610ab057fe5b906000526020600020906007020160060160008154809291906001019190505550600181815481101515610ae057fe5b906000526020600020906007020160040160008154809291906001019190505550610b0a816116de565b600182815481101515610b1957fe5b906000526020600020906007020160050160008154809291906001019190505550826002600084815260200190815260200160002060006101000a81548173ffffffffffffffffffffffffffffffffffffffff021916908373ffffffffffffffffffffffffffffffffffffffff160217905550600360008473ffffffffffffffffffffffffffffffffffffffff1673ffffffffffffffffffffffffffffffffffffffff16815260200190815260200160002060008154809291906001019190505550600360003373ffffffffffffffffffffffffffffffffffffffff1673ffffffffffffffffffffffffffffffffffffffff16815260200190815260200160002060008154809291906001900391905055505b505050565b6000806000809054906101000a900473ffffffffffffffffffffffffffffffffffffffff1673ffffffffffffffffffffffffffffffffffffffff163373ffffffffffffffffffffffffffffffffffffffff16141515610c8f57600080fd5b600a60014303406001900460ff16811515610ca657fe5b0660ff1691506001808054806001018281610cc191906117d6565b9160005260206000209060070201600060e0604051908101604052808a8a8080601f0160208091040260200160405190810160405280939291908181526020018383808284378201915050505050508152602001888152602001878152602001600081526020016000815260200160008152602001600081525090919091506000820151816000019080519060200190610d5c929190611808565b506020820151816001015560408201518160020155606082015181600301556080820151816004015560a0820151816005015560c0820151816006015550500390506000809054906101000a900473ffffffffffffffffffffffffffffffffffffffff166002600083815260200190815260200160002060006101000a81548173ffffffffffffffffffffffffffffffffffffffff021916908373ffffffffffffffffffffffffffffffffffffffff16021790555060018054806001018281610e2591906117d6565b9160005260206000209060070201600060e06040519081016040528089898080601f0160208091040260200160405190810160405280939291908181526020018383808284378201915050505050508152602001878152602001868152602001600081526020016000815260200160008152602001600081525090919091506000820151816000019080519060200190610ec0929190611808565b506020820151816001015560408201518160020155606082015181600301556080820151816004015560a0820151816005015560c082015181600601555050507f6b30b8d2a92f078f650b7551b4acf4a8da86ef0cc82f32978c01a89196fe68be818686868660008060008042604051808b81526020018060200189815260200188815260200187815260200186815260200185815260200184815260200183815260200182810382528b8b8281815260200192508082843782019150509b50505050505050505050505060405180910390a15050505050565b6000809054906101000a900473ffffffffffffffffffffffffffffffffffffffff1681565b60045434141515610fcf57600080fd5b6014600182815481101515610fe057fe5b906000526020600020906007020160020154101515610ffe57600080fd5b60018181548110151561100d57fe5b90600052602060002090600702016002016000815480929190600101919050555050565b611039611888565b611041611888565b600080600360008673ffffffffffffffffffffffffffffffffffffffff1673ffffffffffffffffffffffffffffffffffffffff168152602001908152602001600020546040518059106110915750595b9080825280602002602001820160405250925060009150600090505b600180549050811015611154578473ffffffffffffffffffffffffffffffffffffffff166002600083815260200190815260200160002060009054906101000a900473ffffffffffffffffffffffffffffffffffffffff1673ffffffffffffffffffffffffffffffffffffffff1614156111475780838381518110151561113057fe5b906020019060200201818152505081806001019250505b80806001019150506110ad565b829350505050919050565b6000809054906101000a900473ffffffffffffffffffffffffffffffffffffffff1673ffffffffffffffffffffffffffffffffffffffff163373ffffffffffffffffffffffffffffffffffffffff161415156111ba57600080fd5b6000809054906101000a900473ffffffffffffffffffffffffffffffffffffffff1673ffffffffffffffffffffffffffffffffffffffff166108fc3073ffffffffffffffffffffffffffffffffffffffff16319081150290604051600060405180830381858888f19350505050151561123257600080fd5b565b600080600a60014303406001900460ff1681151561124e57fe5b0660ff169150600180805480600101828161126991906117d6565b9160005260206000209060070201600060e0604051908101604052808981526020018881526020018781526020016000815260200160008152602001600081526020016000815250909190915060008201518160000190805190602001906112d2929190611808565b506020820151816001015560408201518160020155606082015181600301556080820151816004015560a0820151816005015560c082015181600601555050039050336002600083815260200190815260200160002060006101000a81548173ffffffffffffffffffffffffffffffffffffffff021916908373ffffffffffffffffffffffffffffffffffffffff160217905550600360003373ffffffffffffffffffffffffffffffffffffffff1673ffffffffffffffffffffffffffffffffffffffff16815260200190815260200160002060008154809291906001019190505550600180548060010182816113c991906117d6565b9160005260206000209060070201600060e060405190810160405280888152602001878152602001868152602001600081526020016000815260200160008152602001600081525090919091506000820151816000019080519060200190611432929190611808565b506020820151816001015560408201518160020155606082015181600301556080820151816004015560a0820151816005015560c082015181600601555050507f6b30b8d2a92f078f650b7551b4acf4a8da86ef0cc82f32978c01a89196fe68be8185858560008060008042604051808a81526020018060200189815260200188815260200187815260200186815260200185815260200184815260200183815260200182810382528a818151815260200191508051906020019080838360005b8381101561150e5780820151818401526020810190506114f3565b50505050905090810190601f16801561153b5780820380516001836020036101000a031916815260200191505b509a505050505050505050505060405180910390a150505050565b60026020528060005260406000206000915054906101000a900473ffffffffffffffffffffffffffffffffffffffff1681565b6000809054906101000a900473ffffffffffffffffffffffffffffffffffffffff1673ffffffffffffffffffffffffffffffffffffffff163373ffffffffffffffffffffffffffffffffffffffff161415156115e457600080fd5b600073ffffffffffffffffffffffffffffffffffffffff168173ffffffffffffffffffffffffffffffffffffffff161415151561162057600080fd5b8073ffffffffffffffffffffffffffffffffffffffff166000809054906101000a900473ffffffffffffffffffffffffffffffffffffffff1673ffffffffffffffffffffffffffffffffffffffff167f8be0079c531659141344cd1fd0a4f28419497f9722a3daafe3b4186f6b6457e060405160405180910390a3806000806101000a81548173ffffffffffffffffffffffffffffffffffffffff021916908373ffffffffffffffffffffffffffffffffffffffff16021790555050565b80600a6001828154811015156116f057fe5b9060005260206000209060070201600601541015151561170f57600080fd5b6002600083815260200190815260200160002060009054906101000a900473ffffffffffffffffffffffffffffffffffffffff1673ffffffffffffffffffffffffffffffffffffffff163373ffffffffffffffffffffffffffffffffffffffff1614151561177c57600080fd5b60018281548110151561178b57fe5b90600052602060002090600702016003016000815480929190600101919050555060006001838154811015156117bd57fe5b9060005260206000209060070201600601819055505050565b81548183558181151161180357600702816007028360005260206000209182019101611802919061189c565b5b505050565b828054600181600116156101000203166002900490600052602060002090601f016020900481019282601f1061184957805160ff1916838001178555611877565b82800160010185558215611877579182015b8281111561187657825182559160200191906001019061185b565b5b50905061188491906118fb565b5090565b602060405190810160405280600081525090565b6118f891905b808211156118f457600080820160006118bb9190611920565b600182016000905560028201600090556003820160009055600482016000905560058201600090556006820160009055506007016118a2565b5090565b90565b61191d91905b80821115611919576000816000905550600101611901565b5090565b90565b50805460018160011615610100020316600290046000825580601f106119465750611965565b601f01602090049060005260206000209081019061196491906118fb565b5b505600a165627a7a72305820ff0ef2f67fdb564c06147d918084459ca24005e43c9f98e4ff77ca49040a0b180029",
  "source": "pragma solidity ^0.4.19;\n\nimport \"./Generals.sol\";\nimport \"./Ownable.sol\";\n\ncontract FightHunt is Generals {\n    \n    uint public random = uint8(block.blockhash(block.number-1))%10;\n\n    modifier isXP(uint id) {\n        //其实升级经验要随着等级升高而增加,但我还是写死了,有时间改\n        require(generals[id].XP >= 10);\n        _;\n    }\n\n    function changelevel(uint _id)  isXP(_id) internal  {\n        require(msg.sender == GeneralOwner[_id]);\n        generals[_id].level++;\n        generals[_id].XP = 0;\n    }\n\n    function fight(address to_add,uint from_id,uint to_id) public {\n        require(GeneralOwner[from_id] == msg.sender);\n        require(GeneralOwner[to_id] == to_add);\n        if ((generals[from_id].fighting_force -  generals[to_id].fighting_force)*random >= 40){\n                generals[from_id].XP++;\n                generals[from_id].win_count++;\n                changelevel(from_id);\n\n                generals[to_id].loss_count++;\n\n                GeneralOwner[to_id] = to_add;\n                GeneralOwnerCount[msg.sender]++;\n                GeneralOwnerCount[to_add]--;\n                \n        }else{\n                generals[to_id].XP++;\n                generals[to_id].win_count++;\n                changelevel(to_id);\n\n                generals[from_id].loss_count++;\n\n                GeneralOwner[from_id] = to_add;\n                GeneralOwnerCount[to_add]++;\n                GeneralOwnerCount[msg.sender]--;\n        }\n    }\n    function hunt(uint from_id,uint to_id) public{\n            require(GeneralOwner[from_id] == msg.sender);\n             if ((generals[from_id].fighting_force -  generals[to_id].fighting_force)*random >= 50){\n                generals[from_id].XP++;\n                generals[from_id].win_count++;\n                changelevel(from_id);\n\n                GeneralOwner[to_id] = owner;\n             }else{\n                generals[from_id].level--;\n                generals[from_id].loss_count++;\n             }\n        } \n    \n    \n}\n",
  "sourcePath": "/Users/admin/Desktop/zhihuzhuanlan/contracts/FightHunt.sol",
  "compiler": {
    "name": "solc",
    "version": "0.4.19+commit.c4cbbb05.Emscripten.clang"
  },
  "schemaVersion": "1.0.1",
  "updatedAt": "2018-03-14T05:59:10.657Z"
}