{
  "contractName": "Generals",
  "abi": [
    {
      "constant": true,
      "inputs": [
        {
          "name": "",
          "type": "address"
        }
      ],
      "name": "GeneralOwnerCount",
      "outputs": [
        {
          "name": "",
          "type": "uint256"
        }
      ],
      "payable": false,
      "stateMutability": "view",
      "type": "function"
    },
    {
      "constant": true,
      "inputs": [
        {
          "name": "",
          "type": "uint256"
        }
      ],
      "name": "generals",
      "outputs": [
        {
          "name": "name",
          "type": "string"
        },
        {
          "name": "age",
          "type": "uint256"
        },
        {
          "name": "fighting_force",
          "type": "uint256"
        },
        {
          "name": "level",
          "type": "uint256"
        },
        {
          "name": "win_count",
          "type": "uint256"
        },
        {
          "name": "loss_count",
          "type": "uint256"
        },
        {
          "name": "XP",
          "type": "uint256"
        }
      ],
      "payable": false,
      "stateMutability": "view",
      "type": "function"
    },
    {
      "constant": true,
      "inputs": [],
      "name": "owner",
      "outputs": [
        {
          "name": "",
          "type": "address"
        }
      ],
      "payable": false,
      "stateMutability": "view",
      "type": "function"
    },
    {
      "constant": true,
      "inputs": [
        {
          "name": "",
          "type": "uint256"
        }
      ],
      "name": "GeneralOwner",
      "outputs": [
        {
          "name": "",
          "type": "address"
        }
      ],
      "payable": false,
      "stateMutability": "view",
      "type": "function"
    },
    {
      "constant": false,
      "inputs": [
        {
          "name": "newOwner",
          "type": "address"
        }
      ],
      "name": "transferOwnership",
      "outputs": [],
      "payable": false,
      "stateMutability": "nonpayable",
      "type": "function"
    },
    {
      "anonymous": false,
      "inputs": [
        {
          "indexed": false,
          "name": "GeneralId",
          "type": "uint256"
        },
        {
          "indexed": false,
          "name": "name",
          "type": "string"
        },
        {
          "indexed": false,
          "name": "age",
          "type": "uint256"
        },
        {
          "indexed": false,
          "name": "fighting_force",
          "type": "uint256"
        },
        {
          "indexed": false,
          "name": "level",
          "type": "uint256"
        },
        {
          "indexed": false,
          "name": "win_count",
          "type": "uint256"
        },
        {
          "indexed": false,
          "name": "loss_count",
          "type": "uint256"
        },
        {
          "indexed": false,
          "name": "XP",
          "type": "uint256"
        },
        {
          "indexed": false,
          "name": "create_time",
          "type": "uint256"
        }
      ],
      "name": "NewGeneral",
      "type": "event"
    },
    {
      "anonymous": false,
      "inputs": [
        {
          "indexed": true,
          "name": "previousOwner",
          "type": "address"
        },
        {
          "indexed": true,
          "name": "newOwner",
          "type": "address"
        }
      ],
      "name": "OwnershipTransferred",
      "type": "event"
    },
    {
      "constant": false,
      "inputs": [
        {
          "name": "_name",
          "type": "string"
        },
        {
          "name": "_age",
          "type": "uint256"
        }
      ],
      "name": "createGeneral",
      "outputs": [],
      "payable": false,
      "stateMutability": "nonpayable",
      "type": "function"
    },
    {
      "constant": false,
      "inputs": [
        {
          "name": "_name",
          "type": "string"
        },
        {
          "name": "_age",
          "type": "uint256"
        }
      ],
      "name": "createFreeGeneral",
      "outputs": [],
      "payable": false,
      "stateMutability": "nonpayable",
      "type": "function"
    },
    {
      "constant": false,
      "inputs": [
        {
          "name": "_owner",
          "type": "address"
        }
      ],
      "name": "getGeneral",
      "outputs": [
        {
          "name": "",
          "type": "uint256[]"
        }
      ],
      "payable": false,
      "stateMutability": "nonpayable",
      "type": "function"
    },
    {
      "constant": false,
      "inputs": [
        {
          "name": "price",
          "type": "uint256"
        }
      ],
      "name": "setImproveForce",
      "outputs": [],
      "payable": false,
      "stateMutability": "nonpayable",
      "type": "function"
    },
    {
      "constant": false,
      "inputs": [
        {
          "name": "_general_id",
          "type": "uint256"
        }
      ],
      "name": "improveForce",
      "outputs": [],
      "payable": true,
      "stateMutability": "payable",
      "type": "function"
    },
    {
      "constant": false,
      "inputs": [],
      "name": "getEth",
      "outputs": [],
      "payable": false,
      "stateMutability": "nonpayable",
      "type": "function"
    }
  ],
  "bytecode": "0x606060405266038d7ea4c68000600455336000806101000a81548173ffffffffffffffffffffffffffffffffffffffff021916908373ffffffffffffffffffffffffffffffffffffffff1602179055506111888061005e6000396000f3006060604052600436106100af576000357c0100000000000000000000000000000000000000000000000000000000900463ffffffff1680630f2ae689146100b457806310d58230146100d757806324ceadb014610124578063728ea473146102075780638da5cb5b1461023e5780639c172dea14610293578063a9ffa95b146102ab578063cb05b93e14610339578063cd73d4cd1461034e578063e2565d7c146103b4578063f2fde38b14610417575b600080fd5b34156100bf57600080fd5b6100d56004808035906020019091905050610450565b005b34156100e257600080fd5b61010e600480803573ffffffffffffffffffffffffffffffffffffffff169060200190919050506104b5565b6040518082815260200191505060405180910390f35b341561012f57600080fd5b61014560048080359060200190919050506104cd565b60405180806020018881526020018781526020018681526020018581526020018481526020018381526020018281038252898181546001816001161561010002031660029004815260200191508054600181600116156101000203166002900480156101f25780601f106101c7576101008083540402835291602001916101f2565b820191906000526020600020905b8154815290600101906020018083116101d557829003601f168201915b50509850505050505050505060405180910390f35b341561021257600080fd5b61023c6004808035906020019082018035906020019190919290803590602001909190505061051d565b005b341561024957600080fd5b610251610886565b604051808273ffffffffffffffffffffffffffffffffffffffff1673ffffffffffffffffffffffffffffffffffffffff16815260200191505060405180910390f35b6102a960048080359060200190919050506108ab565b005b34156102b657600080fd5b6102e2600480803573ffffffffffffffffffffffffffffffffffffffff1690602001909190505061091d565b6040518080602001828103825283818151815260200191508051906020019060200280838360005b8381101561032557808201518184015260208101905061030a565b505050509050019250505060405180910390f35b341561034457600080fd5b61034c610a4b565b005b341561035957600080fd5b6103b2600480803590602001908201803590602001908080601f01602080910402602001604051908101604052809392919081815260200183838082843782019150505050505091908035906020019091905050610b20565b005b34156103bf57600080fd5b6103d56004808035906020019091905050610e42565b604051808273ffffffffffffffffffffffffffffffffffffffff1673ffffffffffffffffffffffffffffffffffffffff16815260200191505060405180910390f35b341561042257600080fd5b61044e600480803573ffffffffffffffffffffffffffffffffffffffff16906020019091905050610e75565b005b6000809054906101000a900473ffffffffffffffffffffffffffffffffffffffff1673ffffffffffffffffffffffffffffffffffffffff163373ffffffffffffffffffffffffffffffffffffffff161415156104ab57600080fd5b8060048190555050565b60036020528060005260406000206000915090505481565b6001818154811015156104dc57fe5b906000526020600020906007020160009150905080600001908060010154908060020154908060030154908060040154908060050154908060060154905087565b6000806000809054906101000a900473ffffffffffffffffffffffffffffffffffffffff1673ffffffffffffffffffffffffffffffffffffffff163373ffffffffffffffffffffffffffffffffffffffff1614151561057b57600080fd5b600a60014303406001900460ff1681151561059257fe5b0660ff16915060018080548060010182816105ad9190610fca565b9160005260206000209060070201600060e0604051908101604052808a8a8080601f0160208091040260200160405190810160405280939291908181526020018383808284378201915050505050508152602001888152602001878152602001600081526020016000815260200160008152602001600081525090919091506000820151816000019080519060200190610648929190610ffc565b506020820151816001015560408201518160020155606082015181600301556080820151816004015560a0820151816005015560c0820151816006015550500390506000809054906101000a900473ffffffffffffffffffffffffffffffffffffffff166002600083815260200190815260200160002060006101000a81548173ffffffffffffffffffffffffffffffffffffffff021916908373ffffffffffffffffffffffffffffffffffffffff160217905550600180548060010182816107119190610fca565b9160005260206000209060070201600060e06040519081016040528089898080601f01602080910402602001604051908101604052809392919081815260200183838082843782019150505050505081526020018781526020018681526020016000815260200160008152602001600081526020016000815250909190915060008201518160000190805190602001906107ac929190610ffc565b506020820151816001015560408201518160020155606082015181600301556080820151816004015560a0820151816005015560c082015181600601555050507f6b30b8d2a92f078f650b7551b4acf4a8da86ef0cc82f32978c01a89196fe68be818686868660008060008042604051808b81526020018060200189815260200188815260200187815260200186815260200185815260200184815260200183815260200182810382528b8b8281815260200192508082843782019150509b50505050505050505050505060405180910390a15050505050565b6000809054906101000a900473ffffffffffffffffffffffffffffffffffffffff1681565b600454341415156108bb57600080fd5b60146001828154811015156108cc57fe5b9060005260206000209060070201600201541015156108ea57600080fd5b6001818154811015156108f957fe5b90600052602060002090600702016002016000815480929190600101919050555050565b61092561107c565b61092d61107c565b600080600360008673ffffffffffffffffffffffffffffffffffffffff1673ffffffffffffffffffffffffffffffffffffffff1681526020019081526020016000205460405180591061097d5750595b9080825280602002602001820160405250925060009150600090505b600180549050811015610a40578473ffffffffffffffffffffffffffffffffffffffff166002600083815260200190815260200160002060009054906101000a900473ffffffffffffffffffffffffffffffffffffffff1673ffffffffffffffffffffffffffffffffffffffff161415610a3357808383815181101515610a1c57fe5b906020019060200201818152505081806001019250505b8080600101915050610999565b829350505050919050565b6000809054906101000a900473ffffffffffffffffffffffffffffffffffffffff1673ffffffffffffffffffffffffffffffffffffffff163373ffffffffffffffffffffffffffffffffffffffff16141515610aa657600080fd5b6000809054906101000a900473ffffffffffffffffffffffffffffffffffffffff1673ffffffffffffffffffffffffffffffffffffffff166108fc3073ffffffffffffffffffffffffffffffffffffffff16319081150290604051600060405180830381858888f193505050501515610b1e57600080fd5b565b600080600a60014303406001900460ff16811515610b3a57fe5b0660ff1691506001808054806001018281610b559190610fca565b9160005260206000209060070201600060e060405190810160405280898152602001888152602001878152602001600081526020016000815260200160008152602001600081525090919091506000820151816000019080519060200190610bbe929190610ffc565b506020820151816001015560408201518160020155606082015181600301556080820151816004015560a0820151816005015560c082015181600601555050039050336002600083815260200190815260200160002060006101000a81548173ffffffffffffffffffffffffffffffffffffffff021916908373ffffffffffffffffffffffffffffffffffffffff160217905550600360003373ffffffffffffffffffffffffffffffffffffffff1673ffffffffffffffffffffffffffffffffffffffff1681526020019081526020016000206000815480929190600101919050555060018054806001018281610cb59190610fca565b9160005260206000209060070201600060e060405190810160405280888152602001878152602001868152602001600081526020016000815260200160008152602001600081525090919091506000820151816000019080519060200190610d1e929190610ffc565b506020820151816001015560408201518160020155606082015181600301556080820151816004015560a0820151816005015560c082015181600601555050507f6b30b8d2a92f078f650b7551b4acf4a8da86ef0cc82f32978c01a89196fe68be8185858560008060008042604051808a81526020018060200189815260200188815260200187815260200186815260200185815260200184815260200183815260200182810382528a818151815260200191508051906020019080838360005b83811015610dfa578082015181840152602081019050610ddf565b50505050905090810190601f168015610e275780820380516001836020036101000a031916815260200191505b509a505050505050505050505060405180910390a150505050565b60026020528060005260406000206000915054906101000a900473ffffffffffffffffffffffffffffffffffffffff1681565b6000809054906101000a900473ffffffffffffffffffffffffffffffffffffffff1673ffffffffffffffffffffffffffffffffffffffff163373ffffffffffffffffffffffffffffffffffffffff16141515610ed057600080fd5b600073ffffffffffffffffffffffffffffffffffffffff168173ffffffffffffffffffffffffffffffffffffffff1614151515610f0c57600080fd5b8073ffffffffffffffffffffffffffffffffffffffff166000809054906101000a900473ffffffffffffffffffffffffffffffffffffffff1673ffffffffffffffffffffffffffffffffffffffff167f8be0079c531659141344cd1fd0a4f28419497f9722a3daafe3b4186f6b6457e060405160405180910390a3806000806101000a81548173ffffffffffffffffffffffffffffffffffffffff021916908373ffffffffffffffffffffffffffffffffffffffff16021790555050565b815481835581811511610ff757600702816007028360005260206000209182019101610ff69190611090565b5b505050565b828054600181600116156101000203166002900490600052602060002090601f016020900481019282601f1061103d57805160ff191683800117855561106b565b8280016001018555821561106b579182015b8281111561106a57825182559160200191906001019061104f565b5b50905061107891906110ef565b5090565b602060405190810160405280600081525090565b6110ec91905b808211156110e857600080820160006110af9190611114565b60018201600090556002820160009055600382016000905560048201600090556005820160009055600682016000905550600701611096565b5090565b90565b61111191905b8082111561110d5760008160009055506001016110f5565b5090565b90565b50805460018160011615610100020316600290046000825580601f1061113a5750611159565b601f01602090049060005260206000209081019061115891906110ef565b5b505600a165627a7a723058202d36fa3a4e60e4b5f8fa37b88e8c508a05850ae181ae3d001741d45cec6594810029",
  "source": "pragma solidity ^0.4.19;\nimport \"./Ownable.sol\";\n\ncontract Generals is Ownable{\n    \n    event NewGeneral(uint GeneralId,\n    string name, \n    uint age, \n    uint fighting_force,\n    uint level,\n    uint win_count,\n    uint loss_count,\n    uint XP,\n    uint create_time\n    );\n\n    struct General {\n        string name;\n        uint age;\n        uint  fighting_force;//战斗力\n        uint level ;\n        uint win_count;\n        uint loss_count;\n        uint XP;\n        //之后可以加一些别的武将属性\n    }\n\n    General[] public generals;\n    //垃圾语言毁我青春,判断数字在数组的功能都没有,以下是我最初的想法\n    // uint[] public owner_list;//武将 id 列表\n    // mapping(address =>  uint[]) public GeneralOwner;\n    mapping(uint => address) public GeneralOwner;\n    mapping (address => uint) public GeneralOwnerCount;\n\n     function createGeneral(string _name,uint _age) public {\n         // 更多请看http://solidity.readthedocs.io/en/develop/units-and-global-variables.html\n        //也可以看我的知乎文章:https://zhuanlan.zhihu.com/p/34313807 \n        uint _fighting_force = uint8(block.blockhash(block.number-1))%10;\n\n        uint id = generals.push(General(_name,_age,_fighting_force,0,0,0,0)) - 1;//push返回的是长度,我们用来当数组的索引\n\n        GeneralOwner[id] = msg.sender;\n        GeneralOwnerCount[msg.sender]++;\n        generals.push(General(_name,_age,_fighting_force,0,0,0,0));\n        NewGeneral(id, _name, _age,_fighting_force,0,0,0,0,now);    \n        \n    }\n\n    function createFreeGeneral(string _name,uint _age)  onlyOwner external{\n        uint _fighting_force = uint8(block.blockhash(block.number-1))%10;\n\n        uint id = generals.push(General(_name,_age,_fighting_force,0,0,0,0)) - 1;//push返回的是长度,我们用来当数组的索引\n\n        GeneralOwner[id] = owner;\n\n        generals.push(General(_name,_age,_fighting_force,0,0,0,0));\n\n        NewGeneral(id, _name, _age,_fighting_force,0,0,0,0,now);    \n    }\n\n    //找个函数问题很大,每次都要遍历所有武将,是因为之前改写了判断数字是否在数组的原因,找机会再改过来\n    function getGeneral(address _owner) public returns(uint[]) {\n        //memory 别急,找个时间认真讲\n      uint[] memory result = new uint[](GeneralOwnerCount[_owner]);//同长度数组\n      uint counter = 0;\n    for (uint i = 0; i < generals.length; i++) {\n      if (GeneralOwner[i] == _owner) {\n        result[counter] = i;\n        //索引对应武将 id\n        counter++;\n      }\n    }\n    return result;\n  }   \n\n    uint improve_force = 0.001 ether;\n    \n  function setImproveForce(uint price) external onlyOwner {\n    improve_force = price;\n  }\n\n  function improveForce(uint _general_id) payable {\n    require(msg.value == improve_force);\n    require( generals[_general_id].fighting_force < 20);\n    generals[_general_id].fighting_force++;\n  }\n  //this.balance当前合约存储的以太币\n  function getEth()  external onlyOwner {\n    owner.transfer(this.balance);\n  }\n\n}",
  "sourcePath": "/Users/admin/Desktop/zhihuzhuanlan/contracts/Generals.sol",
  "compiler": {
    "name": "solc",
    "version": "0.4.19+commit.c4cbbb05.Emscripten.clang"
  },
  "schemaVersion": "1.0.1",
  "updatedAt": "2018-03-14T05:58:59.976Z"
}