{
  "contractName": "QueryOwner",
  "abi": [
    {
      "constant": false,
      "inputs": [
        {
          "name": "price",
          "type": "uint256"
        }
      ],
      "name": "setImproveForce",
      "outputs": [],
      "payable": false,
      "stateMutability": "nonpayable",
      "type": "function"
    },
    {
      "constant": true,
      "inputs": [
        {
          "name": "",
          "type": "address"
        }
      ],
      "name": "GeneralOwnerCount",
      "outputs": [
        {
          "name": "",
          "type": "uint256"
        }
      ],
      "payable": false,
      "stateMutability": "view",
      "type": "function"
    },
    {
      "constant": true,
      "inputs": [
        {
          "name": "",
          "type": "uint256"
        }
      ],
      "name": "generals",
      "outputs": [
        {
          "name": "name",
          "type": "string"
        },
        {
          "name": "age",
          "type": "uint256"
        },
        {
          "name": "fighting_force",
          "type": "uint256"
        },
        {
          "name": "level",
          "type": "uint256"
        },
        {
          "name": "win_count",
          "type": "uint256"
        },
        {
          "name": "loss_count",
          "type": "uint256"
        },
        {
          "name": "XP",
          "type": "uint256"
        }
      ],
      "payable": false,
      "stateMutability": "view",
      "type": "function"
    },
    {
      "constant": false,
      "inputs": [
        {
          "name": "_name",
          "type": "string"
        },
        {
          "name": "_age",
          "type": "uint256"
        }
      ],
      "name": "createFreeGeneral",
      "outputs": [],
      "payable": false,
      "stateMutability": "nonpayable",
      "type": "function"
    },
    {
      "constant": true,
      "inputs": [],
      "name": "owner",
      "outputs": [
        {
          "name": "",
          "type": "address"
        }
      ],
      "payable": false,
      "stateMutability": "view",
      "type": "function"
    },
    {
      "constant": false,
      "inputs": [
        {
          "name": "_general_id",
          "type": "uint256"
        }
      ],
      "name": "improveForce",
      "outputs": [],
      "payable": true,
      "stateMutability": "payable",
      "type": "function"
    },
    {
      "constant": false,
      "inputs": [
        {
          "name": "_owner",
          "type": "address"
        }
      ],
      "name": "getGeneral",
      "outputs": [
        {
          "name": "",
          "type": "uint256[]"
        }
      ],
      "payable": false,
      "stateMutability": "nonpayable",
      "type": "function"
    },
    {
      "constant": false,
      "inputs": [],
      "name": "getEth",
      "outputs": [],
      "payable": false,
      "stateMutability": "nonpayable",
      "type": "function"
    },
    {
      "constant": false,
      "inputs": [
        {
          "name": "_name",
          "type": "string"
        },
        {
          "name": "_age",
          "type": "uint256"
        }
      ],
      "name": "createGeneral",
      "outputs": [],
      "payable": false,
      "stateMutability": "nonpayable",
      "type": "function"
    },
    {
      "constant": true,
      "inputs": [
        {
          "name": "",
          "type": "uint256"
        }
      ],
      "name": "GeneralOwner",
      "outputs": [
        {
          "name": "",
          "type": "address"
        }
      ],
      "payable": false,
      "stateMutability": "view",
      "type": "function"
    },
    {
      "constant": false,
      "inputs": [
        {
          "name": "newOwner",
          "type": "address"
        }
      ],
      "name": "transferOwnership",
      "outputs": [],
      "payable": false,
      "stateMutability": "nonpayable",
      "type": "function"
    },
    {
      "anonymous": false,
      "inputs": [
        {
          "indexed": false,
          "name": "GeneralId",
          "type": "uint256"
        },
        {
          "indexed": false,
          "name": "name",
          "type": "string"
        },
        {
          "indexed": false,
          "name": "age",
          "type": "uint256"
        },
        {
          "indexed": false,
          "name": "fighting_force",
          "type": "uint256"
        },
        {
          "indexed": false,
          "name": "level",
          "type": "uint256"
        },
        {
          "indexed": false,
          "name": "win_count",
          "type": "uint256"
        },
        {
          "indexed": false,
          "name": "loss_count",
          "type": "uint256"
        },
        {
          "indexed": false,
          "name": "XP",
          "type": "uint256"
        },
        {
          "indexed": false,
          "name": "create_time",
          "type": "uint256"
        }
      ],
      "name": "NewGeneral",
      "type": "event"
    },
    {
      "anonymous": false,
      "inputs": [
        {
          "indexed": true,
          "name": "previousOwner",
          "type": "address"
        },
        {
          "indexed": true,
          "name": "newOwner",
          "type": "address"
        }
      ],
      "name": "OwnershipTransferred",
      "type": "event"
    },
    {
      "constant": false,
      "inputs": [
        {
          "name": "owner",
          "type": "address"
        }
      ],
      "name": "AmountOf",
      "outputs": [
        {
          "name": "",
          "type": "uint256"
        }
      ],
      "payable": false,
      "stateMutability": "nonpayable",
      "type": "function"
    },
    {
      "constant": false,
      "inputs": [
        {
          "name": "id",
          "type": "uint256"
        }
      ],
      "name": "ownerOf",
      "outputs": [
        {
          "name": "",
          "type": "address"
        }
      ],
      "payable": false,
      "stateMutability": "nonpayable",
      "type": "function"
    }
  ],
  "bytecode": "0x606060405266038d7ea4c68000600455336000806101000a81548173ffffffffffffffffffffffffffffffffffffffff021916908373ffffffffffffffffffffffffffffffffffffffff1602179055506112d48061005e6000396000f3006060604052600436106100c5576000357c0100000000000000000000000000000000000000000000000000000000900463ffffffff1680630f2ae689146100ca57806310d58230146100ed57806324ceadb01461013a5780636352211e1461021d578063728ea47314610280578063897b20fa146102b75780638da5cb5b146103045780639c172dea14610359578063a9ffa95b14610371578063cb05b93e146103ff578063cd73d4cd14610414578063e2565d7c1461047a578063f2fde38b146104dd575b600080fd5b34156100d557600080fd5b6100eb6004808035906020019091905050610516565b005b34156100f857600080fd5b610124600480803573ffffffffffffffffffffffffffffffffffffffff1690602001909190505061057b565b6040518082815260200191505060405180910390f35b341561014557600080fd5b61015b6004808035906020019091905050610593565b60405180806020018881526020018781526020018681526020018581526020018481526020018381526020018281038252898181546001816001161561010002031660029004815260200191508054600181600116156101000203166002900480156102085780601f106101dd57610100808354040283529160200191610208565b820191906000526020600020905b8154815290600101906020018083116101eb57829003601f168201915b50509850505050505050505060405180910390f35b341561022857600080fd5b61023e60048080359060200190919050506105e3565b604051808273ffffffffffffffffffffffffffffffffffffffff1673ffffffffffffffffffffffffffffffffffffffff16815260200191505060405180910390f35b341561028b57600080fd5b6102b560048080359060200190820180359060200191909192908035906020019091905050610620565b005b34156102c257600080fd5b6102ee600480803573ffffffffffffffffffffffffffffffffffffffff16906020019091905050610989565b6040518082815260200191505060405180910390f35b341561030f57600080fd5b6103176109d2565b604051808273ffffffffffffffffffffffffffffffffffffffff1673ffffffffffffffffffffffffffffffffffffffff16815260200191505060405180910390f35b61036f60048080359060200190919050506109f7565b005b341561037c57600080fd5b6103a8600480803573ffffffffffffffffffffffffffffffffffffffff16906020019091905050610a69565b6040518080602001828103825283818151815260200191508051906020019060200280838360005b838110156103eb5780820151818401526020810190506103d0565b505050509050019250505060405180910390f35b341561040a57600080fd5b610412610b97565b005b341561041f57600080fd5b610478600480803590602001908201803590602001908080601f01602080910402602001604051908101604052809392919081815260200183838082843782019150505050505091908035906020019091905050610c6c565b005b341561048557600080fd5b61049b6004808035906020019091905050610f8e565b604051808273ffffffffffffffffffffffffffffffffffffffff1673ffffffffffffffffffffffffffffffffffffffff16815260200191505060405180910390f35b34156104e857600080fd5b610514600480803573ffffffffffffffffffffffffffffffffffffffff16906020019091905050610fc1565b005b6000809054906101000a900473ffffffffffffffffffffffffffffffffffffffff1673ffffffffffffffffffffffffffffffffffffffff163373ffffffffffffffffffffffffffffffffffffffff1614151561057157600080fd5b8060048190555050565b60036020528060005260406000206000915090505481565b6001818154811015156105a257fe5b906000526020600020906007020160009150905080600001908060010154908060020154908060030154908060040154908060050154908060060154905087565b60006002600083815260200190815260200160002060009054906101000a900473ffffffffffffffffffffffffffffffffffffffff169050919050565b6000806000809054906101000a900473ffffffffffffffffffffffffffffffffffffffff1673ffffffffffffffffffffffffffffffffffffffff163373ffffffffffffffffffffffffffffffffffffffff1614151561067e57600080fd5b600a60014303406001900460ff1681151561069557fe5b0660ff16915060018080548060010182816106b09190611116565b9160005260206000209060070201600060e0604051908101604052808a8a8080601f016020809104026020016040519081016040528093929190818152602001838380828437820191505050505050815260200188815260200187815260200160008152602001600081526020016000815260200160008152509091909150600082015181600001908051906020019061074b929190611148565b506020820151816001015560408201518160020155606082015181600301556080820151816004015560a0820151816005015560c0820151816006015550500390506000809054906101000a900473ffffffffffffffffffffffffffffffffffffffff166002600083815260200190815260200160002060006101000a81548173ffffffffffffffffffffffffffffffffffffffff021916908373ffffffffffffffffffffffffffffffffffffffff160217905550600180548060010182816108149190611116565b9160005260206000209060070201600060e06040519081016040528089898080601f01602080910402602001604051908101604052809392919081815260200183838082843782019150505050505081526020018781526020018681526020016000815260200160008152602001600081526020016000815250909190915060008201518160000190805190602001906108af929190611148565b506020820151816001015560408201518160020155606082015181600301556080820151816004015560a0820151816005015560c082015181600601555050507f6b30b8d2a92f078f650b7551b4acf4a8da86ef0cc82f32978c01a89196fe68be818686868660008060008042604051808b81526020018060200189815260200188815260200187815260200186815260200185815260200184815260200183815260200182810382528b8b8281815260200192508082843782019150509b50505050505050505050505060405180910390a15050505050565b6000600360008373ffffffffffffffffffffffffffffffffffffffff1673ffffffffffffffffffffffffffffffffffffffff168152602001908152602001600020549050919050565b6000809054906101000a900473ffffffffffffffffffffffffffffffffffffffff1681565b60045434141515610a0757600080fd5b6014600182815481101515610a1857fe5b906000526020600020906007020160020154101515610a3657600080fd5b600181815481101515610a4557fe5b90600052602060002090600702016002016000815480929190600101919050555050565b610a716111c8565b610a796111c8565b600080600360008673ffffffffffffffffffffffffffffffffffffffff1673ffffffffffffffffffffffffffffffffffffffff16815260200190815260200160002054604051805910610ac95750595b9080825280602002602001820160405250925060009150600090505b600180549050811015610b8c578473ffffffffffffffffffffffffffffffffffffffff166002600083815260200190815260200160002060009054906101000a900473ffffffffffffffffffffffffffffffffffffffff1673ffffffffffffffffffffffffffffffffffffffff161415610b7f57808383815181101515610b6857fe5b906020019060200201818152505081806001019250505b8080600101915050610ae5565b829350505050919050565b6000809054906101000a900473ffffffffffffffffffffffffffffffffffffffff1673ffffffffffffffffffffffffffffffffffffffff163373ffffffffffffffffffffffffffffffffffffffff16141515610bf257600080fd5b6000809054906101000a900473ffffffffffffffffffffffffffffffffffffffff1673ffffffffffffffffffffffffffffffffffffffff166108fc3073ffffffffffffffffffffffffffffffffffffffff16319081150290604051600060405180830381858888f193505050501515610c6a57600080fd5b565b600080600a60014303406001900460ff16811515610c8657fe5b0660ff1691506001808054806001018281610ca19190611116565b9160005260206000209060070201600060e060405190810160405280898152602001888152602001878152602001600081526020016000815260200160008152602001600081525090919091506000820151816000019080519060200190610d0a929190611148565b506020820151816001015560408201518160020155606082015181600301556080820151816004015560a0820151816005015560c082015181600601555050039050336002600083815260200190815260200160002060006101000a81548173ffffffffffffffffffffffffffffffffffffffff021916908373ffffffffffffffffffffffffffffffffffffffff160217905550600360003373ffffffffffffffffffffffffffffffffffffffff1673ffffffffffffffffffffffffffffffffffffffff1681526020019081526020016000206000815480929190600101919050555060018054806001018281610e019190611116565b9160005260206000209060070201600060e060405190810160405280888152602001878152602001868152602001600081526020016000815260200160008152602001600081525090919091506000820151816000019080519060200190610e6a929190611148565b506020820151816001015560408201518160020155606082015181600301556080820151816004015560a0820151816005015560c082015181600601555050507f6b30b8d2a92f078f650b7551b4acf4a8da86ef0cc82f32978c01a89196fe68be8185858560008060008042604051808a81526020018060200189815260200188815260200187815260200186815260200185815260200184815260200183815260200182810382528a818151815260200191508051906020019080838360005b83811015610f46578082015181840152602081019050610f2b565b50505050905090810190601f168015610f735780820380516001836020036101000a031916815260200191505b509a505050505050505050505060405180910390a150505050565b60026020528060005260406000206000915054906101000a900473ffffffffffffffffffffffffffffffffffffffff1681565b6000809054906101000a900473ffffffffffffffffffffffffffffffffffffffff1673ffffffffffffffffffffffffffffffffffffffff163373ffffffffffffffffffffffffffffffffffffffff1614151561101c57600080fd5b600073ffffffffffffffffffffffffffffffffffffffff168173ffffffffffffffffffffffffffffffffffffffff161415151561105857600080fd5b8073ffffffffffffffffffffffffffffffffffffffff166000809054906101000a900473ffffffffffffffffffffffffffffffffffffffff1673ffffffffffffffffffffffffffffffffffffffff167f8be0079c531659141344cd1fd0a4f28419497f9722a3daafe3b4186f6b6457e060405160405180910390a3806000806101000a81548173ffffffffffffffffffffffffffffffffffffffff021916908373ffffffffffffffffffffffffffffffffffffffff16021790555050565b8154818355818115116111435760070281600702836000526020600020918201910161114291906111dc565b5b505050565b828054600181600116156101000203166002900490600052602060002090601f016020900481019282601f1061118957805160ff19168380011785556111b7565b828001600101855582156111b7579182015b828111156111b657825182559160200191906001019061119b565b5b5090506111c4919061123b565b5090565b602060405190810160405280600081525090565b61123891905b8082111561123457600080820160006111fb9190611260565b600182016000905560028201600090556003820160009055600482016000905560058201600090556006820160009055506007016111e2565b5090565b90565b61125d91905b80821115611259576000816000905550600101611241565b5090565b90565b50805460018160011615610100020316600290046000825580601f1061128657506112a5565b601f0160209004906000526020600020908101906112a4919061123b565b5b505600a165627a7a72305820806d4ec01de1b950543ec1b079e1746141a4aaf1424e076dc68d8c776202a31c0029",
  "source": "pragma solidity ^0.4.19;\nimport \"./Generals.sol\";\n\ncontract QueryOwner is Generals{\n    function AmountOf(address owner) public returns(uint) {\n        return GeneralOwnerCount[owner];\n    }\n    \n    function ownerOf(uint id) public returns(address){\n        return GeneralOwner[id];\n    }\n}",
  "sourcePath": "/Users/admin/Desktop/zhihuzhuanlan/contracts/QueryOwner.sol",
  "compiler": {
    "name": "solc",
    "version": "0.4.19+commit.c4cbbb05.Emscripten.clang"
  },
  "schemaVersion": "1.0.1",
  "updatedAt": "2018-03-14T05:58:59.977Z"
}